:100000000C940300030088E8E0E0F0E2A1E0B0E037
:0A00100001900D928A95E1F7089522
:10001A0000000000000000000000000000000000D6
:10002A0000000000000000000000000000000000C6
:10003A0000000000000000000000000000000000B6
:10004A0000000000000000000000000000000000A6
:10005A000000000000000000000000000000000096
:10006A000000000000000000000000000000000086
:10007A000000000000000000000000000000000076
:10008A000000000000000000000000000000000066
:08009A0000000000000000005E
:00000001FF
